:0600000000F0CBEF1EF042
:103D4200FFFF54686574614D6100FFFF040EFFFFC1
:103D5200E82EFDD700D01200FFFFFFFFFFFF0F0E7E
:103D6200096E9E0EFFFFE82EFDD7092EFBD712002B
:103D7200FFFFFFFFDFEC1EF0FFFF16EC1FF0000954
:103D8200D8A4FAD7010E0A6E000E0B6EFAEC1EF0E2
:103D9200FFFFFED7440EF66E3D0EF76E000EF86E74
:103DA20000EE01F010EE08F00900F5CFEEFFE5504D
:103DB200E150FAE10C6A0001BAEF1EF0FFFF280E93
:103DC2009BEC1FF0FFFF16EC1FF00009D8A4FAD7F6
:103DD200400E79EC1FF0060E37EC1FF0FFFF16ECD9
:103DE2001FF00009D8A4FAD70E0E37EC1FF012000C
:103DF200FFFFFFFF0FD0FFFF16EC1FF00009D8A452
:103E0200FAD70AC0D9FF0BC0DAFFDF5058EC1FF017
:103E12000A4A0B2AFFFF0AC0D9FF0BC0DAFFDF50A4
:103E2200D8B41200FFFFE7D7FFFFFFFF8C848C920C
:103E3200A6EC1EF08C80A6EC1EF083AE0AD08C900D
:103E4200A6EC1EF08C80A6EC1EF08C908C94010ED9
:103E52000AD0FFFF8C90A6EC1EF08C80A6EC1EF020
:103E62008C908C94000EFFFF1200FFFFFFFF096E83
:103E72000F0E95160F0E83160950F00B83128C94B9
:103E82008C92A6EC1EF08C80A6EC1EF08C900F0E8D
:103E920083160938F00BF00B8312A6EC1EF08C800F
:103EA200A6EC1EF08C90F00E95121200FFFFFFFFA1
:103EB200096E0F0E95160F0E83160950F00B831222
:103EC2008C828C94A6EC1EF08C80A6EC1EF08C905A
:103ED2000F0E83160938F00BF00B8312A6EC1EF0BE
:103EE2008C80A6EC1EF08C90F00E95121200FFFF53
:103EF200FFFF096E0F0E95160F0E831609508009EB
:103F0200F00B83128C948C92A6EC1EF08C80A6ECA3
:103F12001EF08C900F0E83160938F00BF00B8312F3
:103F2200A6EC1EF08C80A6EC1EF08C90F00E951282
:103F32001200FFFFFFFF0B6E0F0E83160F0E95167A
:103F42009594959295908C948C928C90AFEC1EF0F7
:103F5200300E37EC1FF0310E0A6EBB0EFFFFE82E5B
:103F6200FDD70A2EFBD7300E37EC1FF0310E0A6E4A
:103F7200BB0EFFFFE82EFDD70A2EFBD7320E37EC21
:103F82001FF0FFFF16EC1FF00009D8A4FAD7FFFFBD
:103F920016EC1FF00009D8A4FAD70B5037EC1FF02B
:103FA200FFFF16EC1FF00009D8A4FAD7080E37EC71
:103FB2001FF0FFFF16EC1FF00009D8A4FAD70F0E6E
:103FC20037EC1FF0FFFF16EC1FF00009D8A4FAD758
:103FD200010E37EC1FF0FFFF16EC1FF00009D8A40A
:103FE200FAD7040E37EC1FF0FFFF16EC1FF00009A2
:0E3FF200D8A4FAD7800E79EC1FF01200FFFF62
:020000040020DA
:08000000FFFFFFFFFFFFFFFF00
:020000040030CA
:0E000000FF220F0EFF0181FF0FC00FE00F4027
:00000001FF
